:020000040800F2
:1000000000000220B96C0008096D0008493C000896
:10001000096D0008573C0008653C0008000000001E
:10002000000000000000000000000000D13D0008BA
:10003000096D000800000000613E0008D15600086C
:10004000096D0008096D0008096D0008096D0008B8
:10005000096D0008096D0008C9570008CF5700084E
:10006000D5570008DB570008E1570008096D000864
:10007000096D0008096D0008096D0008096D000888
:10008000096D0008096D0008096D0008096D000878
:10009000096D0008096D0008096D0008E7570008A0
:1000A000B9530008D1520008CD530008F55200089A
:1000B000095300081D53000831530008096D00085A
:1000C000096D0008096D0008096D0008096D000838
:1000D000096D0008A5640008BD640008D964000823
:1000E000FD570008096D0008096D0008E15300087C
:1000F00081530008F5530008A5530008096D000856
:10010000096D0008096D000845530008096D0008D5
:10011000F56400080D650008595300086D53000888
:10012000096D0008096D0008096D0008096D0008D7
:10013000096D0008096D0008096D0008096D0008C7
:10014000096D0008096D0008096D0008096D0008B7
:10015000096D0008096D0008096D00082565000893
:10016000096D0008096D0008096D0008096D000897
:10017000096D0008096D0008096D00080000000005
:08018000096D0008096D00087B
:10019000034613F8012B002AFBD1181A01387047C7
:1001A00081F0004102E000BF83F0004330B54FEA28
:1001B00041044FEA430594EA050F08BF90EA020F95
:1001C0001FBF54EA000C55EA020C7FEA645C7FEA28
:1001D000655C00F0E2804FEA5454D4EB5555B8BF4B
:1001E0006D420CDD2C4480EA020281EA030382EABC
:1001F000000083EA010180EA020281EA0303362D4E
:1002000088BF30BD11F0004F4FEA01314FF4801C20
:100210004CEA113102D0404261EB410113F0004F32
:100220004FEA03334CEA133302D0524263EB4303E9
:1002300094EA050F00F0A780A4F10104D5F1200E87
:100240000DDB02FA0EFC22FA05F2801841F10001E2
:1002500003FA0EF2801843FA05F359410EE0A5F1B6
:1002600020050EF1200E012A03FA0EFC28BF4CF0E7
:10027000020C43FA05F3C01851EBE37101F000459D
:1002800007D54FF0000EDCF1000C7EEB00006EEBAA
:100290000101B1F5801F1BD3B1F5001F0CD3490834
:1002A0005FEA30004FEA3C0C04F101044FEA44528B
:1002B00012F5800F80F09A80BCF1004F08BF5FEA12
:1002C000500C50F1000041EB045141EA050130BDF2
:1002D0005FEA4C0C404141EB0101013C28BFB1F504
:1002E000801FE9D291F0000F04BF01460020B1FA4F
:1002F00081F308BF2033A3F10B03B3F120020CDA22
:100300000C3208DD02F1140CC2F10C0201FA0CF0FF
:1003100021FA02F10CE002F11402D8BFC2F1200C64
:1003200001FA02F120FA0CFCDCBF41EA0C0190401A
:10033000E41AA2BF01EB0451294330BD6FEA040463
:100340001F3C1CDA0C340EDC04F11404C4F120024E
:1003500020FA04F001FA02F340EA030021FA04F360
:1003600045EA030130BDC4F10C04C4F1200220FAB7
:1003700002F001FA04F340EA0300294630BD21FAF5
:1003800004F0294630BD94F0000F83F4801306BFBB
:1003900081F480110134013D4EE77FEA645C18BFAF
:1003A0007FEA655C29D094EA050F08BF90EA020F46
:1003B00005D054EA000C04BF1946104630BD91EA3E
:1003C000030F1EBF0021002030BD5FEA545C05D141
:1003D0004000494128BF41F0004130BD14F5800480
:1003E0003CBF01F5801130BD01F0004545F0FE41F4
:1003F00041F470014FF0000030BD7FEA645C1ABF29
:10040000194610467FEA655C1CBF0B46024650EA5F
:10041000013406BF52EA033591EA030F41F400218B
:1004200030BD00BF90F0000F04BF0021704730B511
:100430004FF4806404F132044FF000054FF00001E6
:1004400050E700BF90F0000F04BF0021704730B5A7
:100450004FF4806404F1320410F0004548BF40427C
:100460004FF000013EE700BF42004FEAE2014FEAD1
:1004700031014FEA02701FBF12F07F4393F07F4FAC
:1004800081F06051704732F07F4208BF704793F0AF
:100490007F4F04BF41F40021704730B54FF46074C2
:1004A00001F0004521F000411CE700BF50EA0102C5
:1004B00008BF704730B54FF000050AE050EA01026E
:1004C00008BF704730B511F0004502D5404261EBDE
:1004D00041014FF4806404F132045FEA915C3FF41F
:1004E000D8AE4FF003025FEADC0C18BF03325FEABC
:1004F000DC0C18BF033202EBDC02C2F1200300FA6D
:1005000003FC20FA02F001FA03FE40EA0E0021FA91
:1005100002F11444BDE600BF70B54FF0FF0C4CF47F
:10052000E06C1CEA11541DBF1CEA135594EA0C0F31
:1005300095EA0C0F00F0DEF82C4481EA030621EA6C
:100540004C5123EA4C5350EA013518BF52EA0335A7
:1005500041F4801143F4801338D0A0FB02CE4FF059
:100560000005E1FB02E506F00042E0FB03E54FF089
:100570000006E1FB03569CF0000F18BF4EF0010E81
:10058000A4F1FF04B6F5007F64F5407404D25FEA7D
:100590004E0E6D4146EB060642EAC62141EA555130
:1005A0004FEAC52040EA5E504FEACE2EB4F1FD0C72
:1005B00088BFBCF5E06F1ED8BEF1004F08BF5FEAF0
:1005C000500E50F1000041EB045170BD06F00046A2
:1005D00046EA010140EA020081EA0301B4EB5C044F
:1005E000C2BFD4EB0C0541EA045170BD41F4801147
:1005F0004FF0000E013C00F3AB8014F1360FDEBF6C
:10060000002001F0004170BDC4F10004203C35DA47
:100610000C341BDC04F11404C4F1200500FA05F3CA
:1006200020FA04F001FA05F240EA020001F000426B
:1006300021F0004110EBD37021FA04F642EB0601E1
:100640005EEA430E08BF20EAD37070BDC4F10C040B
:10065000C4F1200500FA04F320FA05F001FA04F2CF
:1006600040EA020001F0004110EBD37041F10001BB
:100670005EEA430E08BF20EAD37070BDC4F12005C6
:1006800000FA05F24EEA020E20FA04F301FA05F22E
:1006900043EA020321FA04F001F0004121FA04F2D6
:1006A00020EA020000EBD3705EEA430E08BF20EAA6
:1006B000D37070BD94F0000F0FD101F000464000E0
:1006C00041EB010111F4801F08BF013CF7D041EA62
:1006D000060195F0000F18BF704703F00046520066
:1006E00043EB030313F4801F08BF013DF7D043EA37
:1006F0000603704794EA0C0F0CEA135518BF95EAED
:100700000C0F0CD050EA410618BF52EA4306D1D173
:1007100081EA030101F000414FF0000070BD50EA92
:10072000410606BF1046194652EA430619D094EA1C
:100730000C0F02D150EA013613D195EA0C0F05D106
:1007400052EA03361CBF104619460AD181EA03015A
:1007500001F0004141F0FE4141F470014FF0000012
:1007600070BD41F0FE4141F4780170BD70B54FF0AD
:10077000FF0C4CF4E06C1CEA11541DBF1CEA13552D
:1007800094EA0C0F95EA0C0F00F0A7F8A4EB05040F
:1007900081EA030E52EA03354FEA013100F0888006
:1007A0004FEA03334FF0805545EA131343EA1263CF
:1007B0004FEA022245EA111545EA10654FEA002684
:1007C0000EF000419D4208BF964244F1FD0404F53D
:1007D000407402D25B084FEA3202B61A65EB030599
:1007E0005B084FEA32024FF480104FF4002CB6EB56
:1007F000020E75EB030E22BFB61A754640EA0C00D6
:100800005B084FEA3202B6EB020E75EB030E22BF15
:10081000B61A754640EA5C005B084FEA3202B6EB56
:10082000020E75EB030E22BFB61A754640EA9C0015
:100830005B084FEA3202B6EB020E75EB030E22BFE5
:10084000B61A754640EADC0055EA060E18D04FEAA3
:10085000051545EA16754FEA06164FEAC30343EA43
:1008600052734FEAC2025FEA1C1CC0D111F4801F10
:100870000BD141EA00014FF000004FF0004CB6E709
:1008800011F4801F04BF01430020B4F1FD0C88BFA8
:10089000BCF5E06F3FF6AFAEB5EB030C04BFB6EBB3
:1008A000020C5FEA500C50F1000041EB045170BDA6
:1008B0000EF0004E4EEA113114EB5C04C2BFD4EBD3
:1008C0000C0541EA045170BD41F480114FF0000E57
:1008D000013C90E645EA060E8DE60CEA135594EAD3
:1008E0000C0F08BF95EA0C0F3FF43BAF94EA0C0FD6
:1008F0000AD150EA01347FF434AF95EA0C0F7FF44B
:1009000025AF104619462CE795EA0C0F06D152EA9E
:1009100003353FF4FDAE1046194622E750EA410682
:1009200018BF52EA43067FF4C5AE50EA41047FF493
:100930000DAF52EA43057FF4EBAE12E74FF0FF3CF8
:1009400006E000BF4FF0010C02E000BF4FF0010CC9
:100950004DF804CD4FEA410C7FEA6C5C4FEA430C42
:1009600018BF7FEA6C5C1BD001B050EA410C0CBF91
:1009700052EA430C91EA030F02BF90EA020F0020F3
:10098000704710F1000F91EA030F58BF994208BF5A
:1009900090422CBFD8176FEAE37040F00100704717
:1009A0004FEA410C7FEA6C5C02D150EA013C07D16E
:1009B0004FEA430C7FEA6C5CD6D152EA033CD3D0B9
:1009C0005DF8040B704700BF8446104662468C46B3
:1009D0001946634600E000BF01B5FFF7B7FF0028E6
:1009E00048BF10F1000F01BD4DF808EDFFF7F4FF0F
:1009F0000CBF012000205DF808FB00BF4DF808ED9A
:100A0000FFF7EAFF34BF012000205DF808FB00BFBC
:100A10004DF808EDFFF7E0FF94BF012000205DF8DE
:100A200008FB00BF4DF808EDFFF7CEFF94BF012093
:100A300000205DF808FB00BF4DF808EDFFF7C4FF8C
:100A400034BF012000205DF808FB00BF4FEA4102DF
:100A500012F5001215D211D56FF47873B3EB625210
:100A600012D94FEAC12343F0004343EA505311F037
:100A7000004F23FA02F018BF404270474FF00000C9
:100A8000704750EA013005D111F0004008BF6FF007
:100A9000004070474FF00000704700BF4FEA41022E
:100AA000B2F1E04324BFB3F5001CDCF1FE5C0DD9CC
:100AB00001F0004C4FEAC0024CEA5070B2F1004F16
:100AC00040EB830008BF20F00100704711F0804F19
:100AD00021D113F13872BCBF01F00040704741F4DE
:100AE00080114FEA5252C2F11802C2F1200C10FAE2
:100AF0000CF320FA02F018BF40F001004FEAC123C6
:100B00004FEAD32303FA0CFC40EA0C0023FA02F369
:100B10004FEA4303CCE77FEA625307D150EA01333F
:100B20001EBF4FF0FE4040F44000704701F000400F
:100B300040F0FE4040F40000704700BF53B94AB98E
:100B4000002908BF00281CBF4FF0FF314FF0FF30D5
:100B500000F00CB8ADF1080C6DE904CE07F0F0FF21
:100B6000DDF804E0DDE9022304B07047704700BF00
:100B700010B5054C237833B9044B13B10448AFF3D7
:100B800000800123237010BDA000002000000000A1
:100B9000048E000808B5034B1BB103490348AFF3AB
:100BA000008008BD00000000A4000020048E0008A2
:100BB00007B5002301930C4B01A9186801F021FF30
:100BC000019B4BB14FF0E0234FF08052C3F8042D4E
:100BD000BFF34F8FBFF36F8F4FF4FA7006F03AF9FF
:100BE00003B05DF804FB00BF140200200000000009
:100BF0002DE9F8432DED068BF0EE408A80EEA80A31
:100C0000A54DA64CF0EE41AAB0EE608A06F0B6FB08
:100C10009FEDA3AA60EE0A7A17EE900AFFF724FC74
:100C200097A3D3E90023FFF7A1FD00229D4BFFF717
:100C3000BDFA41EC100B06F087FC51EC100BFFF7EE
:100C40002DFF9FED997A994B07EE900A77EEC77AC0
:100C50009FED977A186077EE877A964BB0EE007A20
:100C600077EEC77A93ED007A77EE877A17EE900ADF
:100C7000FFF7FAFB84A3D3E90023FFF74DFCFFF74E
:100C80000DFF8D4B286093ED009A8C4BB8EEC99AFE
:100C900028EE080A39EE2A9AA8EEA80A09EE900A68
:100CA00083ED009A06F048FB854BF3EE067A30EEB2
:100CB000678A83ED000A29EE090A824BA8EE080A2A
:100CC00083ED008A06F038FB7F4BF0EE408A83ED1F
:100CD000000A89EE080A06F051FB7C4BDFED7C7AB6
:100CE0009FED7C7A83ED000AE8EEA87AB0EE408AA8
:100CF0009FED790A77EEC77A28EE800A87EE800AA0
:100D000006F0EEFA754B38EE008A83ED000A68EEC5
:100D10000A7A734B17EE900A83ED008AFFF7A4FB63
:100D200057A3D3E90023FFF721FD41EC100B06F098
:100D30000BFC6C4B51EC100B0022FFF737FA02460C
:100D40000B4653A1D1E90001FFF72EFA664B064688
:100D500018680F46FFF788FB02460B4630463946B7
:100D6000FFF724FA48A3D3E90023FFF7D5FBFFF7E9
:100D700095FE9FED5E0ADFED5E7A5E4E5E4F30605F
:100D8000A8EEE80A09EE100A80EE270A06F0A8FA93
:100D90005A4B60EE0A7A83ED000A17EE900AFFF7CD
:100DA00063FB37A3D3E90023FFF7E0FC4D4B0022A0
:100DB000FFF7FAF941EC100B06F0C6FB494953EC7A
:100DC000102B0020FFF7F0F902460B4630A1D1E9C5
:100DD0000001FFF7E9F94A4B804618688946FFF79A
:100DE00043FB02460B4640464946FFF7DFF926A380
:100DF000D3E90023FFF790FBFFF750FEB0EE690A3E
:100E000008EE100A386006F0EFFBBDEEC00A84ED74
:100E1000000AB0EE490A06F0E7FBBDEEC00A84ED19
:100E2000010AB0EE480A06F0DFFBBDEEC00A354904
:100E300084ED020A344C204605F040FE334920463A
:100E400005F022FE95ED000A0221204605F0D8FEAD
:100E50002F49204605F018FE96ED000A0221204693
:100E600005F0CEFE2B49204605F00EFEBDEC068BAC
:100E700097ED000A20460221BDE8F84305F0C0BE08
:100E8000182D4454FB21094048E17A14AE470B4029
:100E90000000000000C07240040100200C0100208E
:100EA000000034430080664000000743F00000204B
:100EB00000004343CC000020040000200801002073
:100EC000EC000020E4000020E8000020E00000200A
:100ED00000902F45002099450000D442DC000020FE
:100EE000F800002000805640C800002000E8F045CF
:100EF00000E0E74500010020FC000020F400002095
:100F0000C4000020208E00087C0600202E8E0008E1
:100F1000338E0008388E00082DE9F8432DED068B3E
:100F2000F0EE408A80EEA80AA54DA64CF0EE41AA4C
:100F3000B0EE608A06F022FA9FEDA3AA60EE0A7A6C
:100F400017EE900AFFF790FA97A3D3E90023FFF773
:100F50000DFC00229D4BFFF729F941EC100B06F028
:100F6000F3FA51EC100BFFF799FD994B9FED997A2D
:100F7000186007EE900A984B77EEC77A9FED977A44
:100F800077EE877A93ED017A77EE877A17EE900AFB
:100F9000FFF76AFA86A3D3E90023FFF7BDFAFFF74C
:100FA0007DFD8F4B286093ED009A8E4BB8EEC99A69
:100FB00028EE080A39EE2A9AA8EEA80A09EE900A45
:100FC00083ED009A06F0B8F9874BF3EE067A30EE1F
:100FD000678A83ED000A29EE090A844BA8EE080A05
:100FE00083ED008A06F0A8F9814BF0EE408A83ED8C
:100FF000000A89EE080A06F0C1F97E4BDFED7E7A21
:101000009FED7E7A83ED000AE8EEA87AB0EE408A82
:101010009FED7B0A77EEC77A28EE800A87EE800A7A
:1010200006F05EF9774B38EE008A83ED000A68EE31
:101030000A7A754B17EE900A83ED008AFFF714FACF
:1010400059A3D3E90023FFF791FB41EC100B06F005
:101050007BFA6E4B51EC100B0022FFF7A7F802460B
:101060000B4655A1D1E90001FFF79EF8684B0646F3
:1010700018680F46FFF7F8F902460B463046394626
:10108000FFF794F84AA3D3E90023FFF745FAFFF7E7
:1010900005FD9FED600ADFED607A604E604F3060C5
:1010A000A8EEE80A09EE100A80EE270A06F018F901
:1010B0005C4B60EE0A7A83ED000A17EE900AFFF7A8
:1010C000D3F939A3D3E90023FFF750FB4F4B00229C
:1010D000FFF76AF841EC100B06F036FA4B4953EC77
:1010E000102B0020FFF760F802460B4632A1D1E931
:1010F0000001FFF759F800224B4BFFF755F84B4B17
:10110000804618688946FFF7AFF902460B4640460D
:101110004946FFF74BF826A3D3E90023FFF7FCF974
:10112000FFF7BCFCB0EE690A08EE100A386006F062
:101130005BFABDEEC00A84ED060AB0EE490A06F07D
:1011400053FABDEEC00A84ED070AB0EE480A06F075
:101150004BFABDEEC00A364984ED080A354C2046EC
:1011600005F0ACFC3449204605F08EFC95ED000AF4
:101170000221204605F044FD3049204605F084FC5C
:1011800096ED000A0221204605F03AFD2C49204642
:1011900005F07AFCBDEC068B97ED000A2046022193
:1011A000BDE8F84305F02CBD182D4454FB2109403F
:1011B00048E17A14AE470B400000000000C07240C6
:1011C000040100200C010020000034430080664030
:1011D000F000002000006143CC0000200000D2425B
:1011E0000000002008010020EC000020E4000020A6
:1011F000E8000020E000002000902F4500209945E5
:101200000000D442DC000020F8000020008056409E
:10121000C800002000E8F04500E0E745000100209C
:10122000FC000020F400002000003140C400002039
:101230003D8E00087C0600202E8E0008338E0008AC
:10124000388E0008000000002DE9F8432DED068BD4
:10125000F0EE408A80EEA80A9B4D9C4CF0EE41AA2D
:10126000B0EE608A06F08AF89FED99AA60EE0A7ADD
:1012700017EE900AFFF7F8F88FA3D3E90023FFF7E2
:1012800075FA0022934BFEF791FF41EC100B06F02C
:101290005BF951EC100BFFF701FC8F4B9FED8F7A40
:1012A000186007EE900A8E4B77EEC77A9FED8D7A25
:1012B00077EE877A93ED027A77EE877A17EE900AC7
:1012C000FFF7D2F87EA3D3E90023FFF725F9FFF754
:1012D000E5FB854B286093ED009A844BB8EEC99AE4
:1012E00028EE080A39EE2A9AA8EEA80A09EE900A12
:1012F00083ED009A06F020F87D4BF3EE067A30EE8F
:10130000678A83ED000A29EE090A7A4BA8EE080ADB
:1013100083ED008A06F010F8774BF0EE408A83EDFB
:10132000000A89EE080A06F029F8744BDFED747A9A
:101330009FED747A83ED000AE8EEA87AB0EE408A59
:101340009FED710A77EEC77A28EE800A87EE800A51
:1013500005F0C6FF6D4B38EE008A83ED000A68EE9B
:101360000A7A6B4B17EE900A83ED008AFFF77CF840
:1013700051A3D3E90023FFF7F9F941EC100B06F074
:10138000E3F8002251EC100B624BFEF70FFF624BAB
:10139000064618680F46FFF767F802460B463046C8
:1013A0003946FEF703FF46A3D3E90023FFF7B4F85D
:1013B000FFF774FB9FED590ADFED597A594E5A4FEA
:1013C0003060A8EEE80A09EE100A80EE270A05F060
:1013D00087FF564B60EE0A7A83ED000A17EE900AFB
:1013E000FFF742F834A3D3E90023FFF7BFF9494BD5
:1013F0000022FEF7D9FE41EC100B06F0A5F8454996
:1014000053EC102B0020FEF7CFFE494B80461868A6
:101410008946FFF729F802460B4640464946FEF743
:10142000C5FE27A3D3E90023FFF776F8FFF736FBC5
:10143000B0EE690A08EE100A386006F0D5F8BDEE85
:10144000C00A84ED090AB0EE490A06F0CDF8BDEEF7
:10145000C00A84ED0A0AB0EE480A06F0C5F8BDEEEF
:10146000C00A344984ED0B0A334C204605F026FBB4
:101470003249204605F008FB95ED000A022120467E
:1014800005F0BEFB2E49204605F0FEFA96ED000A57
:101490000221204605F0B4FB2A49204605F0F4FA63
:1014A000BDEC068B97ED000A20460221BDE8F8430B
:1014B00005F0A6BBAFF30080182D4454FB21094072
:1014C00048E17A14AE470B40040100200C010020D3
:1014D0000000344300807640F000002000809D43EF
:1014E000CC00002000004343000000200801002041
:1014F000EC000020E4000020E8000020E0000020D4
:1015000000902F45002099450000D442DC000020C7
:10151000F800002000805640C000002000E8F045A0
:1015200000E0E74500010020FC000020F40000205E
:10153000BC0000204A8E00087C0600202E8E000889
:10154000338E0008388E00082DE9F8432DED068B08
:10155000F0EE408A80EEA80A9D4D9E4CF0EE41AA26
:10156000B0EE608A05F00AFF9FED9BAA60EE0A7A52
:1015700017EE900AFEF778FF91A3D3E90023FFF757
:10158000F5F841EC100B05F0DFFF51EC100BFFF705
:1015900085FA9FED927A924B07EE900A77EEC77A22
:1015A0009FED907A186077EE877A8F4BB3EE047ACE
:1015B00077EE877A93ED037A77EE877A17EE900AC3
:1015C000FEF752FF80A3D3E90023FEF7A5FFFFF744
:1015D00065FA864B286093ED009A854BB8EEC99A60
:1015E00028EE080A39EE2A9AA8EEA80A09EE900A0F
:1015F00083ED009A05F0A0FE7E4BF3EE067A30EE06
:10160000678A83ED000A29EE090A7B4BA8EE080AD7
:1016100083ED008A05F090FE784BF0EE408A83ED72
:10162000000A89EE080A05F0A9FE754BDFED757A10
:101630009FED757A83ED000AE8EEA87AB0EE408A55
:101640009FED720A77EEC77A28EE800A87EE800A4D
:1016500005F046FE6E4B38EE008A83ED000A68EE18
:101660000A7A6C4B17EE900A83ED008AFEF7FCFEB7
:1016700053A3D3E90023FFF779F841EC100B05F0F1
:1016800063FF002251EC100B634BFEF78FFD634BA1
:10169000064618680F46FEF7E7FE02460B46304640
:1016A0003946FEF783FD48A3D3E90023FEF734FF54
:1016B000FFF7F4F99FED5A0ADFED5A7A5A4E5B4F65
:1016C0003060A8EEE80A09EE100A80EE270A05F05D
:1016D00007FE574B60EE0A7A83ED000A17EE900A78
:1016E000FEF7C2FE36A3D3E90023FFF73FF84A4BCB
:1016F0000022FEF759FD41EC100B05F025FF46498D
:1017000053EC102B0020FEF74FFD0022494BFEF753
:101710004DFD494B804618688946FEF7A5FE0246F6
:101720000B4640464946FEF741FD27A3D3E9002377
:10173000FEF7F2FEFFF7B2F9B0EE690A08EE100A02
:10174000386005F051FFBDEEC00A84ED0F0AB0EE1F
:10175000490A05F049FFBDEEC00A84ED100AB0EE5B
:10176000480A05F041FFBDEEC00A344984ED110A74
:10177000334C204605F0A2F93249204605F084F9A1
:1017800095ED000A0221204605F03AFA2E4920463E
:1017900005F07AF996ED000A0221204605F030FAAC
:1017A0002A49204605F070F9BDEC068B97ED000A3A
:1017B00020460221BDE8F84305F022BAAFF30080CD
:1017C000182D4454FB21094048E17A14AE470B40E0
:1017D000040100200C0100200000344300003442CA
:1017E000F00000200000D242CC00002004000020C5
:1017F00008010020EC000020E4000020E8000020A8
:10180000E000002000902F45002099450000D442C0
:10181000DC000020F800002000805640C0000020BE
:1018200000E8F04500E0E74500010020FC00002052
:10183000F400002000000840BC000020568E000884
:101840007C0600202E8E0008338E0008388E00089B
:101850009FED1A6A1A4B36EE407A70EE066A77EE02
:10186000017A37EE607AC3ED007A76EEC17A154BD5
:10187000C3ED007ADFED147A144B77EEC07A30EEC8
:10188000460A77EE815A30EE411AC3ED005A104BEA
:1018900076EEA06A83ED001A0E4BC3ED006A0E4B84
:1018A00030EE200A83ED007A0C4B77EEE07A83ED80
:1018B000000A0B4BC3ED007A704700BF00005C428A
:1018C000CC010020BC01002000005CC2C00100204F
:1018D000B0010020C8010020B8010020C401002090
:1018E000B4010020874938B50B78B0EE605AF0EEAD
:1018F000410AB0EE611A002B40F0A581B42393FB9E
:10190000F0F307EE903A804A804BF8EEE77AC3EDA9
:10191000007A1368032B00F29281DFE813F00400D1
:101920005400A3004101DFED7A4A7A4B7A4877EE02
:10193000A47AC3ED007A794B18607948FFF788FFE5
:10194000784B0360784804687848046078480360FE
:101950007848046878480460784880ED005A7848F0
:101960000360784804687848046078480360784BDE
:101970001868784B1860784B784883ED005A784B9C
:1019800003607848046878480460784803607848C1
:101990000468784804607848C0ED004A77480360DE
:1019A000774804687748046077480360774B186885
:1019B000774B1860774B7848C3ED004A01230370DA
:1019C0000B7013603FE19FED757A524B544877EEF0
:1019D000877AC3ED007A514B83ED007AFFF738FF29
:1019E000504B0360534804685048046050480360FB
:1019F0004D48046850480460504C00202060504C12
:101A00002360534C2568504C2560504C23604D4B4F
:101A10001C68504B1C60504B18605048504B036082
:101A20005348046850480460504803604D480468B7
:101A300050480460504880ED005A504803605348B5
:101A4000046850480460504803604D4B1868504B80
:101A50001860504B504883ED005A012303700B70FF
:101A60000223AEE7DFED2A4A2A4B2B4877EEA47A11
:101A7000C3ED007A294B18602948FFF7E9FE294B8E
:101A800003602C48046829480460294803602648FC
:101A90000468294804602948C0ED004A28480360CA
:101AA0002B4804682848046028480360254B1868C0
:101AB000284B1860284B2948C3ED004A284B036087
:101AC0002B480468284804602848036025480468B7
:101AD00028480460284880ED005A284803602B48B5
:101AE00004682848046028480360254B1868284B80
:101AF0001860284B284883ED005A012303700B70AF
:101B000003235EE70C020020080200203C010020B5
:101B10000000000004020020000034430002002006
:101B20008C01002000005CC2CC0100208801002054
:101B300084010020BC010020800100207C010020E5
:101B400078010020C00100207401002070010020F5
:101B5000B00100206C010020680100206401002019
:101B600000005C42C8010020600100205C010020F0
:101B7000B80100205801002054010020500100202D
:101B8000C40100204C01002048010020B4010020C5
:101B900044010020400100200C0000200000B4425D
:101BA0001FED027A284B294877EE877AC3ED007A39
:101BB000274B83ED007AFFF74BFE264B0360264848
:101BC00004682648046026480360264804682648BE
:101BD0000460264880ED005A2548036025480468C3
:101BE0002548046025480360254B1868254B18607C
:101BF000254B264883ED005A254B03602548046891
:101C00002548046025480360254804682548046089
:101C1000254C00202060254C2360254C2568254C50
:101C20002560254C2360254B1C68254B1C60254BEB
:101C300018602548012303700B700023C1E60133AF
:101C4000032B1360F9DC38BD040200208C01002056
:101C50000002002000005CC2CC01002088010020AE
:101C600084010020BC010020800100207C010020B4
:101C700078010020C00100207401002070010020C4
:101C8000B00100206C0100206801002064010020E8
:101C900000005C42C8010020600100205C010020BF
:101CA000B8010020580100205401002050010020FC
:101CB000C40100204C01002048010020B401002094
:101CC00044010020400100200C00002008B50F4C0A
:101CD0009FED0F8A0F4D20684FF0FF3100F081FF1C
:101CE000F2EE0E0A9FED0A1AF0EE481AB0EE600A04
:101CF0000620FFF7F7FD2946074804F0DFFE002322
:101D000020681A46194600F048FDE4E7100200205A
:101D100000000000638E00087C0600200000000028
:101D20002DE9F04FCA4B2DED068B1A7883B0002AAF
:101D30007BD0C84AD2ED006AC74AD2ED007AC74AC2
:101D400076EEE76AF2EE047A86EEA77A37EE077A45
:101D500082ED007AC24AD2ED006AC24A92ED007A60
:101D6000C14A76EEC76A86EEA77A37EE077A82ED29
:101D7000007ABE4AD2ED006ABD4A92ED007ABD4AB1
:101D800076EEC76A86EEA77A37EE077A82ED007A9A
:101D9000B94AD2ED006AB94A92ED007AB84A76EEB5
:101DA000C76A86EEA77A37EE077A82ED007AB54ADF
:101DB000D2ED006AB44A92ED007AB44A76EEC76A70
:101DC00086EEA77A37EE077A82ED007AB04AD2ED36
:101DD000006AB04A92ED007AAF4A76EEC76A86EEA4
:101DE000A77A37EE077A82ED007AAC4AD2ED006A24
:101DF000AB4A92ED007AAB4A76EEC76A86EEA77AD6
:101E000037EE077A82ED007AA74AD2ED006AA74A38
:101E100092ED007AA64A76EEC76A86EEA77A37EE8A
:101E2000077A82ED007A00221A70A24CA24D94ED3E
:101E3000008AD5ED007AB4EEE78AF1EE10FA00F2EE
:101E4000FC80864B9FED9D9AD3ED007A824BDFF8A4
:101E5000AC92D3ED009A9A4BDFF8A4A2DFF8A4B2BB
:101E6000984E994FDFF8A08268EE277AF2EE048A46
:101E700087EE897A18EE100AE7EE289AC3ED009AE9
:101E8000794BD3ED007A774B68EE277A93ED00AA71
:101E90008E4B87EE897AA7EE28AA83ED00AAFEF77B
:101EA000E3FA69A3D3E90023FEF736FB41EC100BFC
:101EB00005F0CEF9864B18688DED000BFEF7D4FACD
:101EC000DDE90023FEF728FBFEF7E8FD814B1860F3
:101ED000684BD3ED007A664B68EE277A0AEE900ADB
:101EE00087EE897AD3ED007A654BE7EE287AC9ED63
:101EF000007AD3ED007A614B68EE277A87EE897A13
:101F0000D3ED007A744BE7EE287A1868CAED007AB0
:101F1000FEF7AAFADDE90023FEF7FEFAFEF7BEFDA2
:101F20005A4B6E4AD3ED007A574BCBF8000068EE5F
:101F3000277A87EE897AD3ED007A694BE7EE287A23
:101F4000C3ED007A544BD3ED007A524B68EE277AFA
:101F500087EE897AD3ED007A624BE7EE287A18682B
:101F6000C2ED007AFEF780FADDE90023FEF7D4FA2D
:101F7000FEF794FD4B4B5C49D3ED007A484B08606B
:101F800068EE277A87EE897AD3ED007A484BE7EE40
:101F9000287AC6ED007AD3ED007A444B28EE278AE2
:101FA000D3ED007A514B88EE097A1868E7EE287A6B
:101FB000C7ED007AFEF758FADDE90023FEF7ACFA28
:101FC000FEF76CFDB0EE6A1AF0EE4A0AB0EE690A4E
:101FD000C8F80000FEF70CFE9BED001ADAED000ACF
:101FE00099ED000AFEF798FF98ED001AD7ED000A68
:101FF00096ED000AFFF728F9394B3B49374A93ED34
:10200000000A91ED001AD2ED000AFFF79DFA384B55
:10201000D4ED007A93ED007A77EE877A95ED007A29
:10202000C4ED007AF4EEC77AF1EE10FA05DD314B1B
:102030001B682360304B00221A7003B0BDEC068B86
:10204000BDE8F08FAFF30080399D52A246DF913F8B
:102050000C000020840100208C010020AC01002035
:102060008001002088010020A801002070010020CC
:1020700078010020A40100206C01002074010020E0
:10208000A00100205C0100206401002094010020D8
:10209000580100206001002090010020480100202C
:1020A000500100209C010020440100204C01002030
:1020B0009801002008000020000200200000B44326
:1020C000FC010020D8010020D4010020F8010020EC
:1020D0007C010020F401002068010020EC010020B8
:1020E000F001002054010020E80100204001002000
:1020F0003C010020040200200C020020E40100202A
:10210000E0010020DC010020D0010020024903484A
:10211000002204F09BBB00BF0044004018020020D6
:10212000F8B5064F05460E460024A54200DCF8BD72
:10213000315D384604F08CFA0134F6E718020020CD
:10214000744AF0B51368744F1588C3F3072656FA1E
:1021500083F3724E93B0CDE901765668ADF80C501A
:10216000C6F30725C0F3072153FA80F355FA86F525
:1021700055FA80F503EB41032B4402258DF81050EE
:1021800095688DF8116037128DF81270C5F3072726
:10219000C4B257FA85F51689ADF816602544D6689D
:1021A0008DF81B600D442B4403258DF81550C6F3A4
:1021B000072555FA86F525440D442B4404258DF852
:1021C0001A501569ADF80E0037128DF81C70C5F362
:1021D000072757FA85F5168AADF820602544566919
:1021E0008DF814100D442B4405258DF81F50C6F3AF
:1021F000072555FA86F525440D4437122B4406254C
:10220000ADF818008DF81E10ADF822008DF824509E
:102210008DF825608DF813408DF81D408DF82670DF
:102220009569168BADF82A60C5F3072757FA85F52F
:102230002544D6698DF82F600D442B4407258DF871
:102240002950C6F3072555FA86F525440D442B443D
:1022500008258DF82E50156AADF82C0037128DF830
:102260003070C5F3072757FA85F5168CADF8346042
:102270002544566A8DF839600D442B4409258DF8A4
:102280003350C6F3072555FA86F525440D442B44F3
:102290000A258DF83850956AADF8360037128DF85A
:1022A0003A70C5F3072757FA85F52544168DD26A8B
:1022B000ADF840000D442B440B258DF83D50101215
:1022C0000C258DF828108DF832108DF83C108DF803
:1022D00043208DF827408DF831408DF83B40ADF814
:1022E0003E608DF842508DF84400C0B250FA82F240
:1022F00022440A44134403F231238DF84610DB4391
:1023000001A944208DF845408DF84730FFF708FFBC
:1023100013B0F0BD0C010020FFFFFE40831E04013E
:1023200008B52DED048BDFED2B8A9FED2B8A9FEDF9
:102330002B9AF0EE680AB0EE480AB3EE041AFEF7E4
:1023400057FCF0EE480AB0EE480AB3EE041AFEF766
:10235000E3FDF0EE480AB0EE680AB3EE041AFEF7A9
:1023600073FFF0EE680AB0EE680AB3EE041AFFF7E6
:10237000EBF84FF40070FFF7E3FE4FF4FA7004F04F
:1023800069FDB0EE491AF0EE680AB0EE480AFEF7B1
:102390002FFCB0EE491AF0EE480AB0EE480AFEF7FC
:1023A000BBFDB0EE491AF0EE480AB0EE680AFEF73F
:1023B0004BFFB0EE491AF0EE680AB0EE680AFFF77C
:1023C000C3F8BDEC048B4FF40070BDE80840FFF784
:1023D000B7BE00BF00005C4200005CC2000000000D
:1023E00013B52848284C172104F09EFA25481621D9
:1023F00004F076FA062223484FF4165104F0D0FA7E
:102400002248C62104F090FA2048C72104F068FA57
:102410001F491E48062204F0C3FA40F6B83004F003
:1024200019FDFFF77DFF4FF47A7004F013FD0322CE
:102430000021012000F08DF92060012000F069FAF0
:10244000144B186023681BB913490E4804F036FB7F
:1024500000240123CDE900341049114823464FF4EC
:10246000806200F041FD022300930E49019423464F
:102470004FF480620C4800F037FD02B0BDE8104018
:1024800000F036BE7C060020140200201802002056
:1024900040420F00100200206F8E0008688E000876
:1024A000CD1C00088A8E0008AD24000808B51C4D1C
:1024B0001C4C28684FF0FF3100F093FB20684FF070
:1024C000FF3100F08EFB012826D1FFF729FC1649C9
:1024D000164804F0F3FA164BD3ED007AF4EE677A5F
:1024E000F1EE10FA12D6134BD3ED007AF4EE677AC0
:1024F000F1EE10FA0AD6104BD3ED007AF4EE677ABB
:10250000F1EE10FA02D60020FFF71AFE0023206831
:102510001A46194600F041F9112000F059FFC8E7AA
:102520001402002010020020638E00087C060020A8
:102530000401002000010020FC00002000F108033D
:102540004FF0FF32C0E902234360036100230360C0
:10255000704700230361704743684B609A688A6044
:10256000516099600368086101330360704730B5BA
:102570000C68631C0AD103695A684A6091608B60D9
:102580005960036808610133036030BD00F108023F
:10259000134652681568A542FAD9EDE7D0E9011251
:1025A00003698A6051605968814208BF5A600022FD
:1025B00002611A68013A1A601868704710B504463B
:1025C00001F018FCA46B01F035FCB4FA84F040096A
:1025D00010BD70B51646026C856B044642B906689C
:1025E0009EB9806801F078F8A6600135A56370BDDA
:1025F0006EB9406804F080FD6368226C1344A268E1
:102600006360934224BF236863600020EDE7C068E5
:1026100004F072FD226CE36851429B1A2268E36069
:1026200093423EBFA3685B18E360022EEDD10DB16B
:10263000013DEAE72846D8E7034610B41A6C08467D
:102640006AB1DC68996814448C4228BF1968DC6060
:1026500028BFD960D9685DF8044B04F04DBD5DF822
:10266000044B704770B5044601F0C4FB94F8455024
:1026700004F124066DB2002D14DCFF2384F84530EC
:1026800001F0D8FB01F0B6FB94F8445004F11006B9
:102690006DB2002D12DCFF2384F84430BDE8704099
:1026A00001F0C8BB636A002BE7D0304600F02CFF76
:1026B00008B100F0B3FF013D6DB2DCE72369002BE8
:1026C000E9D0304600F020FF08B100F0A7FF013D3F
:1026D0006DB2DEE738B50D46044640B94FF0500301
:1026E00083F31188BFF36F8FBFF34F8FFEE701F0C5
:1026F00081FBD4E90F31226862604B43D0185B1A2A
:102700001A44A060FF230020A063E26084F84430F4
:1027100084F84530A5B9236973B104F1100000F0C5
:10272000F3FE48B14FF0E0234FF08052C3F8042D80
:10273000BFF34F8FBFF36F8F01F07CFB012038BDDB
:1027400004F11000FFF7FAFE04F12400FFF7F6FE93
:10275000F2E7F8B50D461746064640B94FF050036C
:1027600083F31188BFF36F8FBFF34F8FFEE74843AA
:10277000503001F0D3FA044658B165B100F150036E
:10278000C4E90F65236001212046FFF7A3FF84F809
:102790004C702046F8BD0346F2E7F0B585B00E4612
:1027A00001921D46044640B94FF0500383F311884F
:1027B000BFF36F8FBFF34F8FFEE751B9036C43B187
:1027C0004FF0500383F31188BFF36F8FBFF34F8F28
:1027D000FEE7022D0BD1E36B012B08D04FF0500325
:1027E00083F31188BFF36F8FBFF34F8FFEE700F0C5
:1027F0001BFF08B9019B03BB01F0FCFAA26BE36B62
:102800009A4223D22A4631462046FFF7E2FE636A07
:102810001BB104F1240000F077FE48B14FF0E02333
:102820004FF08052C3F8042DBFF34F8FBFF36F8F6B
:1028300001F000FB012005B0F0BD4FF0500383F321
:102840001188BFF36F8FBFF34F8FFEE7022DD9D0F2
:1028500000231F4637E013B902A800F097FE01F0ED
:10286000E9FA00F091FC01F0C5FA94F84430FF2B2E
:1028700008BF84F8447094F84530FF2B08BF84F8F3
:10288000457001F0D7FA01A902A800F08BFE0028DC
:1028900039D101F0AFFAA26BE36B9A421AD101F081
:1028A000C9FA019904F1100000F0F6FD2046FFF787
:1028B000D9FE00F017FDD8B101F09CFAA36BE26BD2
:1028C0009A429FD80123019A002AC4D101F0B2FA9A
:1028D0000020B0E701F0AEFA2046FFF7C3FE00F09B
:1028E00001FD01F087FAA26BE36B9A42EAD289E715
:1028F0004FF0E0234FF08052C3F8042DBFF34F8F09
:10290000BFF36F8FEDE72046FFF7ACFE00F0EAFC67
:10291000DEE770B50646502001F000FA044688B1A3
:1029200000250121C0E90F150060FFF7D3FE84F8F0
:102930004C60A5602560E5602B462A462946204666
:10294000FFF72BFF204670BD2DE9F8438946174657
:102950001E46044640B94FF0500383F31188BFF37D
:102960006F8FBFF34F8FFEE751B9036C43B14FF048
:10297000500383F31188BFF36F8FBFF34F8FFEE7D0
:10298000022E0BD1E36B012B08D04FF0500383F3E1
:102990001188BFF36F8FBFF34F8FFEE701F040FB4D
:1029A000EFF311884FF0500383F31188BFF36F8F5B
:1029B000BFF34F8FA26BE36B9A4201D3022E1ED15D
:1029C00094F84550A36B6DB2324649462046FFF756
:1029D00000FE6B1C0ED1636A3BB104F1240000F0D1
:1029E00093FD10B10FB101233B60012088F31188E2
:1029F000BDE8F88301356DB284F84550F5E7002055
:102A0000F4E770B50D46044640B94FF0500383F328
:102A10001188BFF36F8FBFF34F8FFEE7036C43B195
:102A20004FF0500383F31188BFF36F8FBFF34F8FC5
:102A3000FEE7036853B9836843B14FF0500383F353
:102A40001188BFF36F8FBFF34F8FFEE701F0E8FAF5
:102A5000EFF311864FF0500383F31188BFF36F8FAC
:102A6000BFF34F8FA26BE36B934219D994F84510D3
:102A70000132FF294BB2A2630DD1636A3BB104F16D
:102A8000240000F041FD10B10DB101232B600120A5
:102A900086F3118870BD01335BB284F84530F6E7E8
:102AA0000020F5E7F0B585B00E460192044640B926
:102AB0004FF0500383F31188BFF36F8FBFF34F8F35
:102AC000FEE751B9036C43B14FF0500383F3118813
:102AD000BFF36F8FBFF34F8FFEE700F0A5FD50B936
:102AE000019B43B14FF0500383F31188BFF36F8F05
:102AF000BFF34F8FFEE701F07DF9A56BDDB13146E5
:102B00002046013DFFF798FDA563236973B104F1E9
:102B1000100000F0F9FC48B14FF0E0234FF0805274
:102B2000C3F8042DBFF34F8FBFF36F8F01F082F90D
:102B3000012005B0F0BD019B1BB901F07BF900201D
:102B4000F7E702A800F022FD2F4601F073F900F02C
:102B50001BFB01F04FF994F84430FF2B08BF84F8B9
:102B6000447094F84530FF2B08BF84F8457001F09D
:102B700061F901A902A800F015FD38BB2046FFF756
:102B80001DFDE8B1019904F1240000F085FC204608
:102B9000FFF768FD00F0A6FB48B94FF0E0234FF0C7
:102BA0008052C3F8042DBFF34F8FBFF36F8F01F036
:102BB00021F9A56B002DA2D1019B002BC5D1BCE74B
:102BC0002046FFF74FFD00F08DFBF0E72046FFF7B2
:102BD00049FD00F087FB2046FFF7F0FC0028E6D017
:102BE000ADE7F0B585B00446019140B94FF0500310
:102BF00083F31188BFF36F8FBFF34F8FFEE7056C30
:102C000045B14FF0500383F31188BFF36F8FBFF3CB
:102C10004F8FFEE700F008FD064620B32E46002742
:102C200001F0E8F8A36B53B3013BA363236813B926
:102C300000F0F8FDA060236973B104F1100000F00A
:102C400063FC48B14FF0E0234FF08052C3F8042DED
:102C5000BFF34F8FBFF36F8F01F0ECF8012005B089
:102C6000F0BD3546DBE7019B002BFAD04FF0500357
:102C700083F31188BFF36F8FBFF34F8FFEE7019B84
:102C800053B9002D66D04FF0500383F31188BFF382
:102C90006F8FBFF34F8FFEE716B902A800F076FCE6
:102CA00001F0C8F800F070FA01F0A4F894F844308C
:102CB000FF2B08BF84F8447094F84530FF2B08BF01
:102CC00084F8457001F0B6F801A902A800F06AFC8A
:102CD00050BB2046FFF772FC00B323683BB901F0FC
:102CE00089F8A06800F0B0FC054601F0A3F801994E
:102CF00004F1240000F0D0FB2046FFF7B3FC00F005
:102D0000F1FA48B94FF0E0234FF08052C3F8042D98
:102D1000BFF34F8FBFF36F8F012681E72046FFF788
:102D2000A1FC00F0DFFAF7E72046FFF79BFC00F07C
:102D3000D9FA2046FFF742FC0028EDD065B101F03A
:102D400059F8616A19B1236B1968C1F10701A068CC
:102D500000F012FD01F06EF8002080E730B5074A60
:102D6000002352F8335002EBC3041DB942F833106C
:102D7000606030BD0133082BF3D1FAE73003002047
:102D800070B504460D46164601F034F894F8443008
:102D9000FF2B04BF002384F8443094F84530FF2B08
:102DA00004BF002384F8453001F044F8A36B2BB92D
:102DB0003246294604F1240000F088FB2046BDE895
:102DC0007040FFF74FBC0000F8B51A4B1A4D1C6855
:102DD0000646286804300F46FFF7E0FB40B92A6832
:102DE0001649D06A0B680122824023EA02030B6075
:102DF000731C07D137B129681148BDE8F840043188
:102E0000FFF7AABB2B68A4195C6007D30D4B1868A9
:102E10002968BDE8F8400431FFF7A9BB0A4B1868E0
:102E200029680431FFF7A3FB084B1A68A24288BF48
:102E30001C60F8BD9403002098040020900300203B
:102E40009C030020DC030020E00300207803002026
:102E500080B5184D184F194E2B6883B9184B1B6855
:102E6000012B09D94FF0E0234FF08052C3F8042D15
:102E7000BFF34F8FBFF36F8F00F0E0FEEBE700F082
:102E8000B9FFFB68DC68201DFFF788FB3368013B56
:102E900033602B68013B2B6000F0CCFF04F158003D
:102EA00004F0AAF8206B00F03BFF204600F038FF4A
:102EB000D2E700BFB0030020B40300209803002035
:102EC0000C040020064A13681968064B19B94FF024
:102ED000FF321A6070471268D268D2685268F8E709
:102EE000E0030020780300202DE9F84F9600074604
:102EF0003046DDF82C900D46984600F00FFF8246D4
:102F000018B94FF0FF30BDE8F88F4FF4C07000F0F3
:102F100005FF0446002800F0C580C0F830A0324606
:102F2000A521504604F060F8236B043E1E4426F0B1
:102F30000706002D00F0A8806B1E04F133020F3548
:102F400013F8011F02F8011F09B1AB42F8D10023A9
:102F500084F843300A9D062D28BF06254FF0000B4C
:102F600004F1040AE562E5645046C4F850B0FFF786
:102F7000F0FAC5F1070504F11800FFF7EAFAC4F802
:102F800078B14FF4907259462461A561646284F867
:102F90007CB104F1580004F027F8444BE36503F1D9
:102FA0006802D0332266636601220023C4E93C2311
:102FB0003F4A404BC4E93E233F4BC4F800310B234A
:102FC000A4F8043142463946304600F0E9FE20605C
:102FD000B9F1000F01D0C9F8004000F00BFF374BEA
:102FE000374F1A68374E01321A603D68002D4ED1B6
:102FF0003C601B68012B1FD1B04640460135FFF7EE
:103000009DFA072D08F11408F7D1DFF8E0802E4D66
:103010004046FFF793FA2846FFF790FA2B48FFF750
:103020008DFA2B48FFF78AFA2A48FFF787FA2A4BCE
:10303000C3F80080294B1D60294A2A491368086893
:1030400001331360E26A6364012393400343142055
:103050000B6000FB02605146FFF77EFA00F0EAFECB
:10306000214B1B6873B13B68DA6AE36A9A4209D262
:103070004FF0E0234FF08052C3F8042DBFF34F8F81
:10308000BFF36F8F01203EE784F8345062E7164BA0
:103090001A68E36A002ACFD13A68D26A9A4298BF86
:1030A0003C60C9E7504600F03BFE2AE7C00700201D
:1030B0000E33CDAB34126DE6ECDE05009803002034
:1030C000980400200C040020E4030020C803002022
:1030D000B40300209C030020E0030020DC03002058
:1030E0007C030020900300208C030020F8030020C4
:1030F00013B51C4A1C4B019300241C491C48009426
:103100002346C2F3CF02FFF7EFFE01281DD100F0E6
:10311000DFFB012819D14FF0500383F31188BFF36F
:103120006F8FBFF34F8F134B134A1B6858331360D5
:10313000124B4FF0FF321A60114B1860114B1C609C
:1031400002B0BDE8104000F0E5BE013008D14FF0FC
:10315000500383F31188BFF36F8FBFF34F8FFEE7E8
:1031600002B010BD00040000740300208F8E000820
:10317000512E000898040020500000207803002001
:103180008C03002094030020024A1368013313606B
:10319000704700BF70030020014B1868704700BFE4
:1031A00094030020444B1B682DE9F74F002B7AD184
:1031B000424B1C6801341C60BCB9414B1A68126850
:1031C00042B14FF0500383F31188BFF36F8FBFF309
:1031D0004F8FFEE73B4A19681068186011603A4A41
:1031E000136801331360FFF76DFE384D384E2B68BE
:1031F000384F9C424FF0000B17D23A68D26A142124
:103200004A43B258022A344A126828BF4FF0010BD1
:103210000AB900F02AFD314A1268002A18BF4FF09F
:10322000010B584603B0BDE8F08FDFF894A0DFF83B
:10323000B090DAF8002012681AB94FF0FF322A6015
:10324000DBE7DAF80020D268D2F80C80D8F8041056
:103250008C4201D22960D0E708F10403184601939B
:10326000FFF79CF9D8F8281019B108F11800FFF7FA
:1032700095F9D8F82C00D9F80030012202FA00F1B3
:1032800019434FF0140CC9F800100CFB00600199B1
:10329000FFF762F93868D8F82C10C26A914228BF4B
:1032A0004FF0010BC5E70C4A1368013313604FF070
:1032B000000B00F0DAFCB4E7700300209403002058
:1032C000E0030020DC0300208003002078030020BE
:1032D0000C040020980400208803002084030020B0
:1032E000900300202DE9F843314C236843B94FF097
:1032F000500383F31188BFF36F8FBFF34F8FFEE747
:1033000000F078FD2368013B236024682CB1002481
:1033100000F090FD2046BDE8F883264B1B68002B8B
:10332000F5D0254D254EDFF8A4801FE0EB68DC6862
:1033300004F1040904F11800FFF730F94846FFF7DB
:103340002DF9E26A3168012707FA02F314200B43D2
:1033500000FB028049463360FFF7FEF8184BE26A33
:103360001B68DB6A9A4201D3164B1F602B68002B47
:10337000DCD10CB1FFF7A6FD134D2C6844B1114E02
:103380000127FFF70FFF00B13760013CF9D12C6036
:103390000C4B1B68002BBAD04FF0E0234FF080524B
:1033A000C3F8042DBFF34F8FBFF36F8F0124AFE736
:1033B0007003002098030020C80300209003002021
:1033C0009804002084030020880300200C040020BF
:1033D00008B550B94FF0E0234FF08052C3F8042DE8
:1033E000BFF34F8FBFF36F8F08BD0A4B196841B110
:1033F0004FF0500383F31188BFF36F8FBFF34F8FEC
:10340000FEE7FFF7C1FEFFF7DFFCFFF76BFF0028C9
:10341000E0D0E9E770030020194B1A68194B10B58A
:1034200012B101221A6010BD1A60174B1A68B2FA65
:1034300082F2D2B2C2F11F02142314495343C818B6
:10344000CC5844B94FF0500383F31188BFF36F8F0A
:10345000BFF34F8FFEE744680833646844600B4451
:103460009C4204BF63684360142303FB02114B6852
:10347000DA68074B1A601B68064A58331360D2E7B4
:103480007003002084030020900300200C0400201F
:10349000980400205000002010B50C4640B94FF0B1
:1034A000500383F31188BFF36F8FBFF34F8FFEE795
:1034B000054B19681831FFF75AF820460121BDE87D
:1034C0001040FFF781BC00BF9804002038B50D46BE
:1034D000144640B94FF0500383F31188BFF36F8F48
:1034E000BFF34F8FFEE7074B19681831FFF734F829
:1034F000002C21460CBF28464FF0FF30BDE8384075
:10350000FFF762BC9804002038B5C368DC6844B992
:103510004FF0500383F31188BFF36F8FBFF34F8FCA
:10352000FEE704F118052846FFF738F8114B1B6831
:10353000E3B9251D2846FFF731F80F49E26A08680C
:103540000123934003430B600C4B1420294600FBDE
:103550000230FFF701F80A4BE26A1B68DB6A9A4205
:1035600083BF084B01201860002038BD064829465B
:10357000EFE700BF70030020900300200C04002040
:103580009804002084030020C8030020034B1B681C
:103590000360034B1B684360704700BF800300203B
:1035A0009403002070B50C46054640B94FF0500317
:1035B00083F31188BFF36F8FBFF34F8FFEE741B9DD
:1035C0004FF0500383F31188BFF36F8FBFF34F8F1A
:1035D000FEE700F00FFC0F4B196823685A1C10D04F
:1035E0000D482E6800686A68864201D08A420FD969
:1035F000881A83420AD95B1A134423602846FFF7CE
:10360000C5FF002400F016FC204670BD0023236097
:103610000124F7E79403002080030020014B0122DE
:103620001A60704784030020054B1B6833B1054BBB
:103630001868B0FA80F040094000704701207047D8
:103640008C03002070030020F8B50446002830D019
:103650001E4DC36A2A68D26A93422FD282691C4ED9
:10366000002AA1BF2A68D26AC2F10702826114222D
:1036700002FB036342699A421CD1071D3846FEF7DC
:103680008DFF144A30B9E06A13680121814023EAB2
:10369000010313602B681168D86AE062012383403C
:1036A0000B4313601423394603FB0060FEF754FFFD
:1036B0000120F8BD2B68DB6AC362F9E72B68C06C98
:1036C000DB6A98422CBF00200120F2E7980400201A
:1036D0000C04002090030020F8B5044608B900202F
:1036E000F8BD224B1B68834208D04FF0500383F390
:1036F0001188BFF36F8FBFF34F8FFEE71B6D43B988
:103700004FF0500383F31188BFF36F8FBFF34F8FD8
:10371000FEE7C16AC26C013B91420365DFD0002B1A
:10372000DDD1061D3046FEF739FF114F114A50B961
:10373000E16A14234B43FB582BB9136801258D40D4
:1037400023EA05031360E36CE362C3F10701A1619F
:103750001168012404FA03F514200D4300FB0370E3
:1037600031461560FEF7F8FE2046B9E798040020C0
:103770000C0400209003002070B50446002849D0B6
:10378000026D42B94FF0500383F31188BFF36F8F7E
:10379000BFF34F8FFEE7C36C994238BF1946C36A27
:1037A0008B4237D0012A35D11B4A1268824208D198
:1037B0004FF0500383F31188BFF36F8FBFF34F8F28
:1037C000FEE78269154DC162002A4FF0140202FB28
:1037D00003534269A4BFC1F1070181619A4219D123
:1037E000061D3046FEF7DAFEE46A0D4A28B9136872
:1037F0000120A04023EA0003136011680123A340C5
:1038000014200B4300FB04503146BDE870401360A8
:10381000FEF7A2BE70BD00BF980400200C0400207B
:1038200090030020044B1A681AB119680A6D01321E
:103830000A651868704700BF98040020914208B5D7
:10384000416000610AD8D21A83699A420DD2084BAE
:10385000011D1868FEF78BFE002008BD9A4201D2B8
:10386000994202D2034B011DF3E70120F5E700BFA7
:10387000A8040020AC040020F8B50F4C00F0BAFA00
:103880002568ADB90D4F0E4E3846FEF757FE30464F
:10389000FEF754FE0B4B1F600B4B2A460C210A20EF
:1038A0001E60FEF756FF206010B10849FFF756FA78
:1038B000BDE8F84000F0BEBAA4040020C404002013
:1038C000B0040020AC040020A8040020948E00085E
:1038D00007B5FFF7D1FF0F4B1B6843B94FF05003FB
:1038E00083F31188BFF36F8FBFF34F8FFEE70A4A50
:1038F0000A4B0193D2080223520000930849094859
:1039000092B20023FFF7F0FA0028E7D003B05DF889
:1039100004FB00BFA404002000040000A004002059
:10392000998E0008253A00087FB5164604461A46C7
:1039300040B94FF0500383F31188BFF36F8FBFF38B
:103940004F8FFEE70D4D286880B10529CDE901169E
:1039500003940DDCFFF768FE0023022808BF089AD5
:10396000286818BF1A4601A9FEF717FF04B070BDFA
:10397000002301A9FEF7E8FFF8E700BFA404002038
:103980002DE9F347DFF898800646FFF705FCD8F8E5
:1039900000308342054609D91F4F3B681A686AB94F
:1039A0001E4A116839601360012300E00023284695
:1039B0003360C8F8005002B0BDE8F087DB68DC680F
:1039C000D3F8009004F1040A5046FEF7E7FD236A9D
:1039D0002046984794F828305B07DED5A3694B440E
:1039E000994506D23868636024615146FEF7BFFDF1
:1039F000D3E7002300934A4619462046FFF794FF79
:103A00000028CAD14FF0500383F31188BFF36F8FA2
:103A1000BFF34F8FFEE700BFAC040020A8040020D6
:103A20009C0400202DE9F043694D6A4E87B02B6855
:103A3000D3F80080B8F1000F35D0DB68D3F80080F0
:103A40000024FFF7A1FB03A8FFF79AFF039B814621
:103A5000002B6AD1002C4DD1404551D3FFF742FCD9
:103A60002B68DB68DF68381DFEF798FD97F8283073
:103A700058071AD5B96943464A4641443846FFF7C4
:103A8000DDFEB0B100942346424621463846FFF79A
:103A90004BFF70B94FF0500383F31188BFF36F8F62
:103AA000BFF34F8FFEE70124CBE723F0010387F834
:103AB00028303B6A384698473068002203A9FEF751
:103AC000F1FF0028B3D0039B002BF5DB059C636955
:103AD00013B1201DFEF762FD02A8FFF751FF039B03
:103AE0000246092BE8D8DFE803F02323234C536B6D
:103AF00023234C53384B1B681C68B4FA84F46409C4
:103B000030682246A8EB0901FFF73AF9FFF7EAFB14
:103B10000028D1D14FF0E0234FF08052C3F8042D9C
:103B2000BFF34F8FBFF36F8FC6E7FFF7DBFBC3E732
:103B300094F82830A16943F0010384F82830049BED
:103B400020461944FFF77AFE0028B5D0236A2046A4
:103B5000984794F828305907AED5A26904990023F4
:103B60000A44009319462046FFF7DEFE0028A3D141
:103B70004FF0500383F31188BFF36F8FBFF34F8F64
:103B8000FEE794F8283023F0010384F8283093E707
:103B900094F8283043F0010384F828300499A16197
:103BA00041B94FF0500383F31188BFF36F8FBFF318
:103BB0004F8FFEE7034601442046FFF73FFE7BE7B9
:103BC00094F828309A07DED4204600F0A9F873E76D
:103BD000AC040020A4040020A8040020064B41F6F9
:103BE00058321B68B3FBF2F3002243439A4200D1E0
:103BF000704700BF0132F9E74C00002038B5044699
:103C000072B60121CE2003F081F800250121CE20DB
:103C100003F0E6F84FF49670FFF7E0FF0021CE20A6
:103C200003F0DEF801354FF49670FFF7D7FFAC4292
:103C3000ECD14FF4FA60FFF7D1FFE6E7FCF7B8BF2D
:103C400008B50420FFF7DAFF08B5FFF7F9FF08B55C
:103C50000520FFF7D3FF08B5FFF7F9FF08B50620E9
:103C6000FFF7CCFF08B5FFF7F9FF704708B5FFF77E
:103C7000DBFC012803D0BDE8084000F023B908BDF3
:103C8000F8B50C4617490B6807464BB9164A174B4F
:103C90009B1A174A22F003029B1A164A0B60136004
:103CA000FFF7C2FC01281FBF114B104D23F0030387
:103CB000ED1A08BF6D46FFF767FA0F4B1E68321901
:103CC000AA4207D90C233B60FFF70CFB4FF0FF36ED
:103CD0003046F8BD1A60074A13681B1B1360FFF7D4
:103CE00001FBF5E7D80400200009002000000220B5
:103CF00000040000DC04002010000020EFF3058326
:103D00000BB9FFF741BA4FF0500383F31188BFF3AB
:103D10006F8FBFF34F8FFEE7FFF7E4BA03F0BAB837
:103D200003F0C0B808480068006880F308884FF0C6
:103D3000000080F3148862B661B6BFF34F8FBFF303
:103D40006F8F00DF00BF000008ED00E0DFF80C001F
:103D5000016841F4700101607047000088ED00E0E7
:103D600082B0002301930D4B1B68013308D04FF044
:103D7000500383F31188BFF36F8FBFF34F8FFEE7BC
:103D80004FF0500383F31188BFF36F8FBFF34F8F52
:103D9000019B002BFCD002B0704700BF1400002034
:103DA0004FF0807340F8043C074B40F80C3C21F086
:103DB00001016FF0020340F8081C40F8202C40F885
:103DC000243C4438704700BF613D000800000000FB
:103DD000074B19680868B0E8F04F80F30988BFF313
:103DE0006F8F4FF0000080F311887047AFF30080B1
:103DF000980400204FF0500383F31188BFF36F8FB6
:103E0000BFF34F8F0A4A13680133012B13600ED1A1
:103E10004FF0E023D3F8043DDBB243B14FF0500341
:103E200083F31188BFF36F8FBFF34F8FFEE77047A7
:103E300014000020084A136843B94FF0500383F37D
:103E40001188BFF36F8FBFF34F8FFEE7013B136005
:103E50000BB983F3118870471400002000000000A4
:103E6000EFF30980BFF36F8F154B1A681EF0100F28
:103E700008BF20ED108A20E9F04F10602DE90900FD
:103E80004FF0500080F31188BFF34F8FBFF36F8F57
:103E9000FFF7C2FA4FF0000080F3118809BC1968DF
:103EA0000868B0E8F04F1EF0100F08BFB0EC108AA1
:103EB00080F30988BFF36F8F704700BFAFF30080B6
:103EC0009804002008B54FF0500383F31188BFF326
:103ED0006F8FBFF34F8FFFF765F928B14FF0E023E5
:103EE0004FF08052C3F8042D002383F3118808BDDE
:103EF0004FF0E022002313619361054B4FF47A7178
:103F00001B68B3FBF1F3013B536107231361704757
:103F10004C0000204FF0E02337B5D3F8001D3A4A9B
:103F2000914208D14FF0500383F31188BFF36F8F94
:103F3000BFF34F8FFEE7D3F8002D344B9A4208D1E0
:103F40004FF0500383F31188BFF36F8FBFF34F8F90
:103F5000FEE72F4B1A78D2B20192FF221A701B781B
:103F60002C4ADBB28DF803309DF8033003F0500388
:103F70001370294A0723136000219DF803000006EF
:103F800003F1FF340CD411B1032B136011D04FF0A7
:103F9000500383F31188BFF36F8FBFF34F8FFEE79A
:103FA0009DF803305B00DBB28DF80330012123461E
:103FB000E3E74FF440731360019B154A4FF0E02490
:103FC000DBB21370D4F8203D43F46003C4F8203D05
:103FD000D4F8203D43F06043C4F8203DFFF788FF4C
:103FE0000E4B00251D60FFF7B1FED4F8343F43F0BF
:103FF0004043C4F8343FFFF795FEFFF70DFAFFF793
:10400000AFFE284603B030BD71C20F4170C20F41F0
:1040100000E400E0E4040020E0040020140000209C
:10402000EFF305830F2B0ED9114A9B5C114A1278CE
:104030009A4208D94FF0500383F31188BFF36F8F72
:10404000BFF34F8FFEE74FF0E0230B4AD3F80C3D50
:10405000126803F4E063934208D94FF0500383F3EE
:104060001188BFF36F8FBFF34F8FFEE7704700BF1C
:10407000F0E300E0E4040020E004002070470000CA
:1040800038B50E4B1A784FF47A73B3FBF2F30C4A3F
:1040900005461068B0FBF3F000F0A6F8044658B9E6
:1040A0000F2D09D8024629464FF0FF3000F04AF89C
:1040B000044B20461D6038BD0120FCE7180000209D
:1040C0004C0000201C00002008B50B4B1A6842F47D
:1040D00000721A601A6842F480621A601A6842F428
:1040E00080721A60032000F01BF80020FFF7C8FF61
:1040F000FFF7C4FF002008BD003C0240034A044B08
:1041000011681B780B441360704700BFE80400205F
:1041100018000020014B1868704700BFE804002019
:104120000749CA6822F4E0620302120403F4E06360
:10413000120C134343F0BF6343F40033CB6070476A
:1041400000ED00E0164B30B5DC68C4F30224C4F186
:104150000703251D042B28BF0423062D4FF0FF3530
:104160008CBF033C002405FA03F321EA0303A540B6
:1041700022EA0502A340002843EA0203ACBF00F193
:104180006040084A4FEA0313B8BF00F00F00DBB2EB
:10419000AABF00F56140135480F8003330BD00BF62
:1041A00000ED00E014ED00E0002807DB044A4109BF
:1041B000012300F01F00834042F82130704700BF08
:1041C00000E100E000280CDB4309064900F01F0075
:1041D00020330122824041F82320BFF34F8FBFF3E9
:1041E0006F8F704700E100E00138B0F1807F0BD2A3
:1041F0004FF0E023054A5861F02182F82310002097
:10420000072298611A6170470120704700ED00E0B5
:10421000002808DB4309044900F01F000122603335
:10422000824041F82320704700E100E0704708B564
:10423000FFF7FCFF08BD704710B5044650B1437945
:1042400003F0FF0213B90271FFF7F5FF0123637159
:10425000002010BD0120FCE710B5044640B1022348
:10426000037101F0D5F9002020616071207110BD4B
:104270000120FCE710B5012358B1046801F01001DA
:10428000226803FA01F122EA010222600371002090
:1042900010BD1846FCE770B50446866DFFF73AFF7F
:1042A00094F83530022B054606D080236365012043
:1042B000002384F8343070BD23681A6822F0160297
:1042C0001A605A6922F080025A61226C0AB9A26C03
:1042D0001AB11A6822F008021A601A6822F0010264
:1042E0001A602368186810F0010007D1E26D3F23BF
:1042F0009340B360012384F83530D9E7FFF70AFF14
:10430000401B0528EDD920230320636584F8350080
:10431000CEE790F83530022B03D08023436501208F
:1043200070470268052380F83530136823F00103D5
:104330001360002070470000044A5169014208B52B
:1043400002D0506101F02AFA08BD00BF003C0140D4
:104350002DE9F341044640B30368DE0710D4236817
:104360009D075BD42368190700F19D8023685A07D5
:1043700000F1BD80A369002B40F0248100202CE0D7
:104380008D4B9A6802F00C02042A07D09A6802F05A
:104390000C02082A0BD15B68590208D5864B1B68B2
:1043A0009A03DCD56368002BD9D1012015E063683E
:1043B000814DB3F5803F13D12B6843F480332B60DC
:1043C000FFF7A8FE7C4E054633689B03C7D4FFF772
:1043D000A1FE401B6428F7D9032002B0BDE8F0819C
:1043E000B3F5A02F04D12B6843F480232B60E3E7BF
:1043F0002A6822F480322A602A6822F480222A6005
:10440000002BDDD1FFF786FE06462B689F03A6D55D
:10441000FFF780FE801B6428F7D9DDE7664B9A68BA
:1044200012F00C0F07D09A6802F00C02082A11D182
:104430005B685D020ED4604A1368990702D5E36891
:10444000012BB2D11368216923F0F80343EAC103B9
:10445000136087E7E268594BB2B101221A60FFF797
:1044600059FE554D06462B689B0707D52B682269D8
:1044700023F0F80343EAC2032B6073E7FFF74AFE19
:10448000801B0228EFD9A7E71A60FFF743FE4A4EC8
:10449000054633689F077FF565AFFFF73BFE401B7E
:1044A0000228F6D998E76269444B82B10122C3F829
:1044B000802EFFF72FFE404E0546736F9B073FF59A
:1044C00055AFFFF727FE401B0228F6D984E7C3F853
:1044D000802EFFF71FFE384E0546736F9F077FF54E
:1044E00045AFFFF717FE401B0228F6D974E7324BA1
:1044F0001A6C12F0805228D101921A6C42F080524C
:104500001A641B6C03F080530193019B01272C4D0F
:104510002B68D8051BD5A368274D012B27D12B6FFE
:1045200043F001032B67FFF7F5FD234E054641F2EB
:104530008838336F9A0739D5002F3FF41BAF1E4AD6
:10454000136C23F08053136414E70027DFE72B6814
:1045500043F480732B60FFF7DDFD06462B68D90519
:10456000D9D4FFF7D7FD801B0228F7D934E7052BF4
:1045700004D12B6F43F004032B67D0E72A6F22F09E
:1045800001022A672A6F22F004022A67002BCAD18F
:10459000FFF7C0FD41F2883806462B6F9B07CBD54D
:1045A000FFF7B8FD801B4045F7D915E7FFF7B2FDCF
:1045B000401B4045BDD90FE700380240000047428C
:1045C00000700040374DAA6802F00C02082A3ED065
:1045D000022B354B4FF000021A662BD1FFF79AFDE4
:1045E00006462B6899011FD4D4E907321343626A47
:1045F00043EA8213E26A43EA0263A26A5208013A7A
:1046000043EA02436B60284B264D01221A66FFF7EE
:1046100081FD04462B689A013FF5B0AEFFF77AFDA5
:10462000001B0228F6D9D7E6FFF774FD801B02288D
:10463000D7D9D1E6FFF76EFD04462B689B017FF5C5
:104640009DAEFFF767FD001B0228F6D9C4E6012BDB
:104650003FF4ABAE6B68E26903F4800191427FF4F2
:10466000A4AE216A03F03F028A427FF49EAE616AE3
:1046700047F6C0721A40B2EB811F7FF496AEA26A71
:10468000520803F44031013AB1EB024F7FF48DAE92
:10469000E26A03F07063B3EB026F14BF01200020E5
:1046A0009BE600BF0038024000004742134908B5AE
:1046B0008B6803F00C03042B1CD0082B1CD14A6818
:1046C0004B68496813F4800314BF0D480D48C1F3CB
:1046D000881118BF002302F03F02A1FB0001FCF784
:1046E0002DFA064B5B68C3F3014301335B00B0FB5B
:1046F000F3F008BD0248FCE70248FAE70038024040
:1047000000127A000024F4002DE9F0410D46044621
:1047100010B90120BDE8F081434B1A6802F007028E
:104720008A4228D321688F072DD4C80740D43E4B36
:104730001A6802F00702AA4265D8226851076BD4B2
:10474000130707D5394A2169936823F4604343EA84
:10475000C1039360FFF7AAFF344B354A9B68C3F34C
:104760000313D35CD840334B1860334B1868FFF702
:1047700087FC0020CEE7CAB21A701B6803F007035B
:104780008B42C6D1CEE7294B11F0040F1EBF9A68A9
:1047900042F4E0529A600E0742BF9A6842F46042C7
:1047A0009A609A68A06822F0F00202439A60BCE71F
:1047B00062681E4B012A1CD11B6813F4003FA8D06D
:1047C0001A4EB36823F003031343B360FFF7A2FC50
:1047D00041F288380746B368626803F00C03B3EB14
:1047E000820FA4D0FFF796FCC01B4045F3D90320ED
:1047F00090E7911E01291B6802D813F0007FDEE7C5
:1048000013F0020FDBE7EAB21A701B6803F007032C
:10481000AB427FF47EAF90E70449E0688B6823F4F5
:10482000E05303438B608BE7003C024000380240BA
:10483000EC8E00084C0000201C000020044B054AB0
:104840009B68C3F38223D35C034A1068D840704747
:1048500000380240E48E00084C000020044B054A5A
:104860009B68C3F34233D35C034A1068D840704757
:1048700000380240E48E00084C000020704770476A
:10488000036870B5DD681E69B10704460DD5AA0737
:104890000BD56FF002021A61012202779B699B0718
:1048A00069D000F004FE00232377710710D56A0752
:1048B0000ED523686FF004021A61022222779B69E9
:1048C00013F4407F20465CD000F0F1FD00232377F5
:1048D00033070FD528070DD523686FF008021A613A
:1048E00004222277DB699907204650D000F0DFFDD3
:1048F00000232377F20610D5EB060ED523686FF060
:1049000010021A6108222277DB6913F4407F2046E7
:1049100043D000F0CCFD00232377F00708D5E9074A
:1049200006D523686FF001021A61204600F09CFD55
:10493000320608D52B0606D523686FF080021A616F
:10494000204600F0B6F8700608D5690606D523683B
:104950006FF040021A612046FFF791FFB20622D5A0
:10496000AB0620D523686FF0200220461A61BDE80F
:10497000704000F09DB800F098FD2046FFF77EFFE4
:1049800091E700F092FD2046FFF778FF9EE700F0E8
:104990008CFD2046FFF772FFAAE700F086FD204657
:1049A000FFF76CFFB7E770BD294A036890421BD040
:1049B000B0F1804F18D0A2F57C42904214D002F59D
:1049C0008062904210D002F5806290420CD002F5D5
:1049D0007842904208D002F57052904209D1CA68DC
:1049E00023F44073134317E04A6823F07003134322
:1049F000F5E7184A9042F2D002F580629042EED07C
:104A0000A2F598329042EAD002F580629042E6D058
:104A100002F580629042E2D04A6923F0800313439A
:104A200003608B68C3620B688362094B984203D0B2
:104A300003F58063984201D10B690363012343614D
:104A40000369DB0742BF036923F001030361704779
:104A5000000001400044014010B5044630B390F816
:104A60003D3003F0FF021BB980F83C2001F0CAFA88
:104A70000223206884F83D30211DFFF795FF0123B4
:104A800084F84630002084F83E3084F83F3084F8C3
:104A9000403084F8413084F8423084F8433084F860
:104AA000443084F8453084F83D3010BD0120FCE7E7
:104AB00070477047026802F10C0353E8003F23F48B
:104AC00090730C3242E8003102680029F2D102F101
:104AD000140353E8003F23F0010302F1140C4CE8E7
:104AE00000310029F3D1036B012B0BD102F10C0330
:104AF00053E8003F23F0100302F10C0C4CE80031A6
:104B00000029F3D1202380F842300023036370474B
:104B10000268C16838B5136923F440530B4313612D
:104B2000054683680069D168034368690343E869FF
:104B300021F4164121F00C0103430B43D360536968
:104B4000A96923F440730B4353611F4B9A4203D06E
:104B500003F580639A4224D1FFF780FEEA691921A8
:104B6000B2F5004FD5E90043A0FB01011CD1DA18D2
:104B70004FF0000545EB0503FBF7E0FF6422B0FBB7
:104B8000F2F102FB1103DB003233B3FBF2F303F06B
:104B900007025B0002EB011203F4F8731344A360F5
:104BA00038BDFFF74BFED9E79A009B0FFBF7C6FF16
:104BB0006422B0FBF2F102FB11031B013233B3FBA1
:104BC000F2F303EB0113EAE700100140704710B560
:104BD000044648B390F8413003F0FF021BB980F857
:104BE0004020FFF7F3FF2268242384F84130D36884
:104BF00023F40053D3602046FFF78AFF23681A6925
:104C000022F490421A615A6922F02A025A61DA6843
:104C100042F40052DA6000202023606484F84130BE
:104C200084F84230606310BD0120FCE710B50446F3
:104C300068B390F8413003F0FF021BB980F84020C0
:104C4000FFF7C4FF2268242384F84130D36823F49B
:104C50000053D3602046FFF75BFF23681A6922F4F4
:104C600090421A615A6922F022025A615A6942F04E
:104C700008025A61DA6842F40052DA600020202308
:104C8000606484F8413084F84230606310BD0120D4
:104C9000FCE790F84130202B10D189B182B1C28459
:104CA00001628284016800232122436480F841204C
:104CB000CA6842F08002CA601846704702207047F6
:104CC0000120704708B5806B0023C385C38401F0C1
:104CD000ABFB08BD704790F84230222B07B542D19C
:104CE00081680268836AB1F5805F3FD1016900295C
:104CF0003FD15268C2F3080223F8022B8362C38DAE
:104D0000013B9BB2C385002B2DD10268D16821F0F5
:104D10002001D160D16821F48071D160516921F006
:104D200001015161202280F842204363026B012A75
:104D3000026828D1036302F10C0353E8003F23F01B
:104D4000100302F10C0C4CE800310029F3D1136878
:104D5000DB0605D501911368019353680193019B0C
:104D6000818DFFF7B7FF03B05DF804FB39B9016926
:104D700029B95268D2B21A70836A0133BEE7526809
:104D800002F07F02F7E701F049FBECE703681A68DD
:104D900073B51607D9685D6904460AD1960640F1D5
:104DA0008B808D0640F1888002B0BDE87040FFF72F
:104DB00092BF15F001054BD012F0010F02F0040371
:104DC00063D11BB1636C43F002036364930749D55D
:104DD000636C43F00403636412F0080F03D0636C48
:104DE00043F008036364636C002B5FD0920604D524
:104DF0008B0602D52046FFF76EFF26687369626C4A
:104E000003F0400302F0080253EA020520464FD0A7
:104E1000FFF750FE73695E0645D5226802F1140360
:104E200053E8003F23F04003143242E800310029E8
:104E3000F3D1E06B002836D08A4B0365FFF769FA9F
:104E4000002833D0E06B036D02B0BDE87040184716
:104E500011F4907F30D012F0010F02F0040307D15B
:104E600090070DD41007BED501F020032B43B5E702
:104E7000CE050FD4002BF3D19607F3D5002DA7D183
:104E80001507B0D511F0200FA8E7C80502D4002BF4
:104E900098D1F1E7636C560743F001036364EBD5E7
:104EA000002DDDD08EE7204601F0BEFA02B070BDC5
:104EB00001F0BAFA6564F9E7206B012840F09580AB
:104EC000D50640F19280C80640F18F800022019201
:104ED0001A6801925A680192019A5A6952064ED58F
:104EE000E16B0A68526892B2002ADFD0A08D90422E
:104EF000DCD9E285CA69B2F5807F36D003F10C02B5
:104F000052E8002F22F4807203F10C0040E80021E7
:104F10000029F3D103F1140252E8002F22F001021C
:104F200003F1140040E800210029F3D103F1140239
:104F300052E8002F22F0400203F1140040E8002163
:104F40000029F3D1202284F84220216303F10C02CE
:104F500052E8002F22F0100203F10C0040E800217B
:104F60000029F3D1E06BFFF796F902236363E38D29
:104F7000A18DC91A89B22046FFF7ACFE96E7E28DF3
:104F8000E08DA18D80B292B200288FD0891A89B2AB
:104F900000298BD003F10C0252E8002F22F490720A
:104FA00003F10C0545E800200028F3D103F11402B9
:104FB00052E8002F22F0010203F1140545E8002019
:104FC0000028F3D1202284F84220206303F10C0250
:104FD00052E8002F22F0100203F10C0545E80020F2
:104FE0000028F3D102236363C5E7160628D50D0612
:104FF00026D594F84120212A7FF458AFA168226A6F
:10500000B1F5805F17D12169A9B932F8021BC1F34C
:10501000080159602262E28C013A92B2E284002ACD
:105020007FF444AFDA6822F08002DA60DA6842F096
:105030004002DA603AE7511C216212785A60EAE7CE
:1050400050067FF533AF4A067FF530AFDA6822F0BD
:105050004002DA60202384F84130204601F0E1F973
:1050600024E700BFC54C000890F84030012B11D058
:105070000268242380F84130D36823F00C0343F006
:105080000803D360202380F84130002380F84030AB
:10509000184670470220704790F84030012B11D01D
:1050A0000268242380F84130D36823F00C0343F0D6
:1050B0000403D360202380F84130002380F840307F
:1050C000184670470220704790F8412090F842003F
:1050D00010437047C28500238285026943642223FE
:1050E00080F84230816203681AB1DA6842F4807253
:1050F000DA605A6942F001025A61DA6842F020022D
:10510000DA600020704770B490F84260202E06D11B
:1051100041B13AB10024046370BCFFF7DBBF022049
:1051200070BC70470120FBE7836810B504462BB1C3
:105130000322014698470023C4E9023310BD836867
:1051400010B5044613B1032201469847204610BD0E
:10515000294A9042034635D0B0F1804F48D0A2F59D
:105160007C42904230D002F58062904242D002F5FB
:10517000806290422AD002F58062904234D002F5DB
:105180008062904224D002F5704290422ED002F507
:10519000705290421ED002F5806290421CD002F5FF
:1051A000806290421AD04FF6FF70144A934217D093
:1051B00002F58062934215D002F58062934208BFE7
:1051C0000D2070470020F0E7022070470420704750
:1051D0000620704708207047092070470A20704752
:1051E0000B2070470C207047052070470720704740
:1051F0000120704703207047000001400018004064
:10520000014670B5044651F8100FFFF7A1FF05469F
:10521000084600F09FFD094A002342F8253004F1BA
:105220006006E36004F1B005B54204D0103D2846A5
:10523000FFF785FFF8E7204670BD00BFEC040020B3
:10524000F8B504460846FFF783FF4FF6FF73984210
:1052500000D1FEE7236903B1FEE71C4DA36404F10E
:105260000C0245F8202004F110060E22C4E90C338C
:10527000C4E90E33C4E91033C4E91623216184F86C
:105280002C3084F84C3084F84D30E460304600F027
:1052900061FC04F1600504F1B00728461035FFF702
:1052A00043FFBD42F9D100234FF6FF72C4E900333A
:1052B000C4E90632C4E90833A36063618023A362B2
:1052C0003046BDE8F840FFF7C7BB00BFEC04002044
:1052D00010B5074C206810B10430FFF7D1FA606AAE
:1052E00020B1BDE810400430FFF7CABA10BD00BFBE
:1052F000EC040020034B186810B10430FFF7C0BA6B
:10530000704700BFEC040020034B586810B1043014
:10531000FFF7B6BA704700BFEC040020034B986853
:1053200010B10430FFF7ACBA704700BFEC040020A6
:10533000034BD86810B10430FFF7A2BA704700BF22
:10534000EC040020034B186910B10430FFF798BA41
:10535000704700BFEC040020034B586910B10430C3
:10536000FFF78EBA704700BFEC040020034B98692A
:1053700010B10430FFF784BA704700BFEC0400207E
:1053800010B5074CE06910B10430FFF779FA206BD3
:1053900020B1BDE810400430FFF772BA10BD00BF65
:1053A000EC040020034BD86910B10430FFF768BA51
:1053B000704700BFEC040020034B186A10B10430A2
:1053C000FFF75EBA704700BFEC040020034B986AF9
:1053D00010B10430FFF754BA704700BFEC0400204E
:1053E000034BD86A10B10430FFF74ABA704700BFC8
:1053F000EC040020034B586B10B10430FFF740BAA7
:10540000704700BFEC0400200022C0E90022C0E980
:1054100002227047F8B504460E4600F1600500F11F
:10542000B00728461035FFF7EFFFBD42F9D1002342
:10543000204623613146FFF703FF2046F8BD82680E
:1054400010B50AB903F0DAFCBDE81040C36818478C
:1054500008B500B9FEE700F07BFB0068836E13B16E
:105460006030FFF7ECFF08BDFFF7F2BF10B500B9E1
:10547000FEE7037F013B072B10D8DFE803F004149D
:105480000F100F0F0F12012400F062FB00680634AA
:1054900000EB041083680BB1FFF7D1FF10BD0324AC
:1054A000F2E70424F0E70224EEE7FFF7DFBFFFF79F
:1054B000DDBF01F0EFBC01F0F5BC00008AB00023B5
:1054C00008287CD8DFE800F00513202D3A47546106
:1054D0006E0001933B4B3C481A6B42F001021A6389
:1054E0001B6B03F001030193019B0AB07047029309
:1054F000344B36481A6B42F002021A631B6B03F0FE
:1055000002030293029BF0E703932E4B30481A6B81
:1055100042F004021A631B6B03F004030393039B22
:10552000E3E70493274B2B481A6B42F008021A63F7
:105530001B6B03F008030493049BD6E70593214BF0
:1055400025481A6B42F010021A631B6B03F010031C
:105550000593059BC9E706931A4B20481A6B42F046
:1055600020021A631B6B03F020030693069BBCE723
:105570000793144B1A481A6B42F040021A631B6BD4
:1055800003F040030793079BAFE708930D4B1548C3
:105590001A6B42F080021A631B6B03F080030893BE
:1055A000089BA2E70993074B0F481A6B42F48072DD
:1055B0001A631B6B03F480730993099B95E7002022
:1055C00093E700BF003802400000024000040240A0
:1055D00000080240000C024000100240001402408B
:1055E00000180240001C02400020024008B5074994
:1055F00000F076FAC0F3C430012802D0022802D0AD
:10560000FEE7002008BD1020FCE700BFE89300087B
:105610000268094B9A420DD103F5E2331A6A42F04F
:1056200000521A621A6A22F000521A621A6C22F0B0
:1056300000521A64704700BF0074004010B50B4957
:1056400086B0044600F02AFA019060B12046FFF7C8
:10565000CDFF30F01003014605D101A8FEF70AFE88
:1056600001A8FEF7F9FD06B010BD00BFE8930008E1
:10567000F8B51449144E074600F010FAFFF768FD1C
:1056800056F82030044673B9B020FFF712FF0D49D9
:105690000546384600F002FA01462846FFF7BAFEF2
:1056A00056F824301D6056F824301C6844B120465A
:1056B000FFF7A6FD2046B021BDE8F840FFF7FBBE8E
:1056C000F8BD00BFAC900008EC040020FEF722BD3E
:1056D00008B5FEF713FDFEF7AAFDFEF7C7FA08BDF1
:1056E0007047000084B0114B00220192196C41F008
:1056F00080511964196C01F0805101910199029255
:10570000596C41F480415964596C01F48041029113
:10571000029903921A6B42F480521A631B6B03F4D2
:1057200080530393039B04B0704700BF00380240CE
:105730000C4BD3F8FC20D2015EBFD3F8FC2042F022
:105740008072C3F8FC20084B00225A601A6842F0AD
:1057500001021A6000BF00BF00BF5868B0FA80F0B5
:105760004009704700ED00E0001000E008B5FFF7C9
:10577000B9FFFFF7DDFFFEF7A7FCFFF7B1FF00F071
:10578000E9FEBDE808400148FEF756BD4400002090
:105790000023C0E90033C0E9023370470023012829
:1057A00003F101020AD11422DBB25343054A181D4A
:1057B0001044816829B11A441369184740081346F8
:1057C000EDE77047240500200120FEF7B5BD02205B
:1057D000FEF7B2BD0420FEF7AFBD0820FEF7ACBD5A
:1057E0001020FEF7A9BD38B505242025A8B2FEF784
:1057F000A3FD013C4FEA4505F8D138BD38B5062474
:105800004FF48065A8B2FEF797FD013C4FEA4505CD
:10581000F8D138BD344A104608B5062300F8043BD9
:10582000FFF7B6FF072302F118001375FFF7B0FF6B
:10583000082302F12C0082F82830FFF7A9FF092382
:1058400002F1400082F83C30FFF7A2FF0A2302F188
:10585000540082F850301721FFF79AFF02F16800D8
:1058600082F86410FFF794FF02F17C0082F8781050
:10587000FFF78EFF02F1900082F88C10FFF788FF8F
:1058800002F1A40082F8A010FFF782FF02F1B80035
:1058900082F8B4102821FFF77BFF02F1CC0082F8D8
:1058A000C810FFF775FF02F1E00082F8DC10FFF787
:1058B0006FFF02F1F40082F8F010FFF769FF02F5C4
:1058C000847082F80411FFF763FF02F58E7082F88E
:1058D0001811FFF75DFFBDE8084002F5987082F8E7
:1058E0002C11FFF755BF00BF2405002038B5054C2B
:1058F000A4F5A075143C201DFFF721FCAC42F9D1A2
:1059000038BD00BF6406002030B591FAA1F391FACA
:10591000A1F1B3FA83F3C4685B000325B1FA81F106
:1059200005FA03F3490024EA03038A401A43C260DC
:1059300030BD431C04D00C3151F80C3C5A1C01D131
:1059400000207047834201F10C01F5D1012070471E
:10595000F8B5471C06460D4600D1FEE700F00F02E1
:10596000414BC0F3031053F82240FFF7A7FD94FA10
:10597000A4F3B3FA83F3876803225B0002FA03F30C
:1059800094FAA4F2B2FA82F227EA03075200032340
:1059900093403B4305F007018360032903D8DFE808
:1059A00001F05F032C61FEE7012394FAA4F2B2FA3E
:1059B00082F206685200032707FA02F226EA02067C
:1059C00094FAA4F2B2FA82F25200934001393343BE
:1059D0000129036005D843682A074CBF2343A3432A
:1059E0004360C5F30112012A02D0022A18BF002227
:1059F0002146BDE8F840FFF787BFC5F306227F2A9E
:105A000001D10223D1E7360716D5230A93FAA3F66C
:105A1000B6FA86F6476A93FAA3F3B6004FF00F0C76
:105A2000B3FA83F30CFA06F69B0027EA060602FA9D
:105A300003F333434362E4E794FAA4F3B3FA83F342
:105A4000066A9B000F2707FA03F326EA030694FA77
:105A5000A4F3B3FA83F39B009A4032430262D0E787
:105A60000023A2E70323A0E7A48E0008431C06D16D
:105A70007047834202D18968FFF76ABF0C310B6817
:105A80005A1CF6D1FEE70B685A1C01D10020704762
:105A9000834201D1486870470C31F4E7431C01D0C0
:105AA000FFF7F1BF002070474B6813B94FF0FF308C
:105AB0007047834201D1086870470C31F4E708B1A0
:105AC000FFF7F2BF4FF0FF30704703460868421CF3
:105AD00000D17047984201D1886870470C31F5E7D2
